:02000000FE2FD1
:10026A00C4003F217830E9210030E9214408E9211E
:10027A00EE2708008312031307120330C000C00BD5
:10028A00442947298312031387110800C200C101B8
:10029A00421C5029512953294008C1070310C00D97
:1002AA000310C20C4208031D5B295C294D29410831
:1002BA0008000330C000C00B6029632983120313AE
:1002CA0087150330C000C00B68296B2983120313FA
:1002DA0087110330C000C00B702973290800C401BC
:1002EA00C501401C79297A2980294208C4070318C4
:1002FA00C50A4308C50701300310C20DC30DFF3EEE
:10030A00031D812901300310C10CC00CFF3E031DDF
:10031A00882940084104031D932994297629450810
:10032A00C1004408C0000800C60121303521003050
:10033A0035217F30352122303521460835214608BE
:10034A00013E35213F217830E9214030E921C501BC
:10035A000030E9210130C50780304502031CB62967
:10036A00B729AD29EE270130C60708304602031C1B
:10037A00BF29C0299A290800D901D3295708C600DC
:10038A0059085807C7005908550784005608031822
:10039A00560AFF0000231F270130D90759085507BD
:1003AA00840056080318560A83120313FF00002319
:1003BA00003A0319E129E229E82914305902031CF9
:1003CA00E729E829C3290800C200C3014208C1007D
:1003DA004308073C013EF3290310C10CFF3E031DED
:1003EA00F1294118F929FD29831203130716002A56
:1003FA008312031307125E210130C3070830430238
:10040A00031C082A092AEB298316031307165E21FF
:10041A000330C100C10B0F2A122A831603130712D5
:10042A000800AE3035218D30352114303521203089
:10043A00352100303521A1303521C8303521DA3057
:10044A0035212230352181303521FF303521D53013
:10045A00352180303521A83035213F303521D33040
:10046A0035210030352140303521D9303521F13060
:10047A003521DB30352140303521A4303521A630F5
:10048A003521AF30352108004008410403194E2AAE
:10049A004F2A7C2A0130C4005B2A01300310C00DA8
:1004AA00C10DFF3E031D532A0130C407C11F5E2A36
:1004BA005F2A522A41084302031D652A4008420264
:1004CA00031C682A692A6F2A4008C2024108031CD1
:1004DA00C303C30201300310C10CC00CFF3E031D4D
:1004EA00702A0130C402031D7B2A7C2A5F2A430832
:1004FA00C1004208C00008008316031387110712BF
:10050A0083120313871507160830E4009D30E300B1
:10051A000530E200E20B8F2AE30B8F2AE40B8F2AC5
:10052A00962A162299211A30D5008730D600D7018B
:10053A00D801C1211030E4003930E3000D30E20067
:10054A00E20BA52AE30BA52AE40BA52AAC2A9921DA
:10055A000E30D5008730D600D701D801C1217B30B3
:10056A00D5000030D6000230D700D801A727BC2A10
:10057A000028C401C501400841040319C52AC62A36
:10058A00FB2A0130C600D22A01300310C00DC10D6A
:10059A00FF3E031DCA2A0130C607C11FD52AD62A23
:1005AA00C92A01300310C40DC50DFF3E031DD72A09
:1005BA0041084302031DE32A40084202031CE62ABB
:1005CA00E72AEE2A4008C2024108031CC303C302F9
:1005DA00441401300310C10CC00CFF3E031DEF2A66
:1005EA000130C602031DFA2AFB2AD62A4508C10091
:1005FA004408C0000800FF1B0A2B83137F188317C7
:10060A000008840A0319FF0A08007F087F398A0054
:10061A000408840A0319FF0A8200003400340034F3
:10062A0000340034003400345F34003400340034C1
:10063A00073400340734003414347F3414347F34DC
:10064A00143424342A347F342A34123423341334AD
:10065A0008346434623436344934553422345034DC
:10066A000034053403340034003400341C3422349A
:10067A00413400340034413422341C340034083408
:10068A002A341C342A340834083408343E340834F2
:10069A000834003450343034003400340834083418
:1006AA0008340834083400346034603400340034C8
:1006BA00203410340834043402343E34513449347A
:1006CA0045343E34003442347F34403400344234BA
:1006DA0061345134493446342134413445344B343D
:1006EA0031341834143412347F34103427344534F6
:1006FA004534453439343C344A3449344934303445
:10070A0001347134093405340334363449344934F4
:10071A004934363406344934493429341E340034D1
:10072A003634363400340034003456343634003427
:10073A000034003408341434223441341434143468
:10074A001434143414344134223414340834003444
:10075A000234013451340934063432344934793498
:10076A0041343E347E341134113411347E347F34B2
:10077A0049344934493436343E34413441344134BD
:10078A0022347F344134413422341C347F34493496
:10079A004934493441347F34093409340134013449
:1007AA003E3441344134513432347F3408340834CD
:1007BA0008347F34003441347F34413400342034E7
:1007CA00403441343F3401347F3408341434223401
:1007DA0041347F3440344034403440347F3402342E
:1007EA00043402347F347F340434083410347F34C0
:1007FA003E344134413441343E347F34093409347F
:10080A00093406343E344134513421345E347F3461
:10081A00093419342934463446344934493449347C
:10082A003134013401347F34013401343F344034EB
:10083A00403440343F341F342034403420341F3491
:10084A007F342034183420347F3463341434083429
:10085A001434633403340434783404340334613490
:10086A005134493445344334003400347F344134FC
:10087A0041340234043408341034203441344134CD
:10088A007F34003400340434023401340234043432
:10089A00403440344034403440340034013402346B
:1008AA0004340034203454345434543478347F3487
:1008BA004834443444343834383444344434443482
:1008CA00203438344434443448347F34383454344B
:1008DA0054345434183408347E340934013402341C
:1008EA0008341434543454343C347F3408340434D3
:1008FA0004347834003444347D34403400342034B1
:10090A00403444343D34003400347F3410342834C5
:10091A004434003441347F34403400347C34043469
:10092A001834043478347C34083404340434783485
:10093A00383444344434443438347C34143414342D
:10094A001434083408341434143418347C347C34A1
:10095A000834043404340834483454345434543491
:10096A00203404343F344434403420343C3440345A
:10097A00403420347C341C342034403420341C3439
:10098A003C344034303440343C3444342834103419
:10099A00283444340C345034503450343C344434C5
:1009AA00643454344C3444340034083436344134D6
:1009BA000034003400347F340034003400344134CD
:1009CA00363408340034083408342A341C340834E1
:1009DA0008341C342A34083408340034003400340F
:1009EA0000340034003450343034003400340034DD
:1009FA006034603400340034003406340934093475
:100A0A000634083408341C343E347F347034F834E5
:100A1A00FF34FE34783400340034003400340034B7
:100A2A00003400345F3400340034003407340034B6
:100A3A000734003414347F3414347F3414342434A7
:100A4A002A347F342A341234233413340834643475
:100A5A00623436344934553422345034003405343F
:100A6A0003340034003400341C342234413400345A
:100A7A000034413422341C34003408342A341C34FF
:100A8A002A340834083408343E340834083400342C
:100A9A00503430340034003408340834083408340C
:100AAA0008340034603460340034003420341034A4
:100ABA000834043402343E345134493445343E3423
:100ACA00003442347F344034003442346134513487
:100ADA00493446342134413445344B3431341834A2
:100AEA00143412347F3410342734453445344534B1
:100AFA0039343C344A344934493430340134713459
:100B0A0009340534033436344934493449343634E3
:100B1A0006344934493429341E34003436343634E0
:100B2A00003400340034563436340034003400348F
:100B3A00083414342234413414341434143414343C
:100B4A001434413422341434083400340234013465
:100B5A0051340934063432344934793441343E3418
:100B6A007E341134113411347E347F34493449349B
:100B7A00493436343E3441344134413422347F34AA
:100B8A004134413422341C347F34493449344934A1
:100B9A0041347F3409340934013401343E34413458
:100BAA004134513432347F340834083408347F34C1
:100BBA00003441347F3441340034203440344134E9
:100BCA003F3401347F3408341434223441347F34BE
:100BDA0040344034403440347F34023404340234E4
:100BEA007F347F340434083410347F343E34413443
:100BFA00413441343E347F340934093409340634EB
:100C0A003E344134513421345E347F34093419344A
:100C1A002934463446344934493449343134013468
:100C2A0001347F34013401343F3440344034403499
:100C3A003F341F342034403420341F347F3420346E
:100C4A00183420347F34633414340834143463344D
:100C5A000334043478340434033461345134493469
:100C6A0045344334003400347F344134413402344F
:100C7A000434083410342034413441347F3400348D
:100C8A00003404340234013402340434403440342D
:100C9A0040344034403400340134023404340034E3
:100CAA00203454345434543478347F3448344434FB
:100CBA0044343834383444344434443420343834B2
:100CCA004434443448347F343834543454345434F7
:100CDA00183408347E3409340134023408341434A4
:100CEA00543454343C347F3408340434043478346F
:100CFA00003444347D3440340034203440344434A5
:100D0A003D34003400347F34103428344434003401
:100D1A0041347F34403400347C340434183404348D
:100D2A0078347C3408340434043478343834443421
:100D3A004434443438347C34143414341434083489
:100D4A0008341434143418347C347C3408340434AD
:100D5A000434083448345434543454342034043475
:100D6A003F344434403420343C344034403420341A
:100D7A007C341C342034403420341C343C34403419
:100D8A00303440343C344434283410342834443425
:100D9A000C345034503450343C3444346434543475
:100DAA004C3444340034083436344134003400348A
:100DBA0000347F340034003400344134363408348B
:100DCA000034083408342A341C34083408341C34F7
:100DDA002A3408340834003400340034003400342F
:100DEA000034503430340034003400346034603419
:100DFA000034003400340634093409340634083423
:100E0A0008341C343E347F347034F834FF34FE34F2
:100E1A007834483465346C346C346F342034573445
:100E2A006F3472346C346434003449346E34693447
:100E3A0074340034D000203035210130352121307E
:100E4A0035210D30C00047084B2135210D30C00037
:100E5A0047084B21093E35212230352146083521E4
:100E6A004608013E35213F217830E9214030E92109
:100E7A00D3015308C800C9015008CA00CB014A0867
:100E8A00C0004B08C1000530C2000030C300742105
:100E9A007030CC008430CD0040084C07CE004108A9
:100EAA000318410A4D07CF0048084E078400490835
:100EBA000318490A4F0783120313FF000023D400C3
:100ECA00D201D101541F6A2F6B2F6D2FC030D20768
:100EDA00D41E702F712F732F3030D207541E762FE5
:100EEA00772F792F0C30D207D41D7C2F7D2F7F2F9F
:100EFA000330D207541D822F832F852FC030D1078C
:100F0A00D41C882F892F8B2F3030D107541C8E2F59
:100F1A008F2F912F0C30D1075108E9215208E9216E
:100F2A005108E9215208E9210130D307053053025B
:100F3A00031CA02FA12F3E2FEE2720303521003091
:100F4A0035210800E10161085B3E84000A30C000D7
:100F5A000030C1005608C3005508C20049224008A3
:100F6A0080000130E1070A30C0000030C100560895
:100F7A00C3005508C200BE224108D6004008D50069
:100F8A00550856040319CA2FCB2FD12F05306102F9
:100F9A00031CD02FD12FA82FE001E72F5708C60036
:100FAA0060085807C7005B30D9006008D902610899
:100FBA005907DA005A08FF3E84000008303E1F270E
:100FCA000130E00761086002031CEC2FED2FD32FDC
:100FDA0008008312031387150330C000C00BF32FD8
:0A0FEA00F62F831203130716080008
:040FFC008301812AC2
:02400E00BA3FB7
:00000001FF
